{
  "contractName": "TerraSix",
  "abi": [
    {
      "constant": true,
      "inputs": [],
      "name": "reforestationDAO",
      "outputs": [
        {
          "name": "",
          "type": "address"
        }
      ],
      "payable": false,
      "stateMutability": "view",
      "type": "function"
    },
    {
      "constant": false,
      "inputs": [
        {
          "name": "spender",
          "type": "address"
        },
        {
          "name": "value",
          "type": "uint256"
        }
      ],
      "name": "approve",
      "outputs": [
        {
          "name": "",
          "type": "bool"
        }
      ],
      "payable": false,
      "stateMutability": "nonpayable",
      "type": "function"
    },
    {
      "constant": true,
      "inputs": [],
      "name": "totalSupply",
      "outputs": [
        {
          "name": "",
          "type": "uint256"
        }
      ],
      "payable": false,
      "stateMutability": "view",
      "type": "function"
    },
    {
      "constant": false,
      "inputs": [
        {
          "name": "sender",
          "type": "address"
        },
        {
          "name": "recipient",
          "type": "address"
        },
        {
          "name": "amount",
          "type": "uint256"
        }
      ],
      "name": "transferFrom",
      "outputs": [
        {
          "name": "",
          "type": "bool"
        }
      ],
      "payable": false,
      "stateMutability": "nonpayable",
      "type": "function"
    },
    {
      "constant": true,
      "inputs": [],
      "name": "uniswap",
      "outputs": [
        {
          "name": "",
          "type": "address"
        }
      ],
      "payable": false,
      "stateMutability": "view",
      "type": "function"
    },
    {
      "constant": true,
      "inputs": [],
      "name": "FLOW",
      "outputs": [
        {
          "name": "",
          "type": "uint256"
        }
      ],
      "payable": false,
      "stateMutability": "view",
      "type": "function"
    },
    {
      "constant": true,
      "inputs": [],
      "name": "BOOTSTRAP_PRICE",
      "outputs": [
        {
          "name": "",
          "type": "uint256"
        }
      ],
      "payable": false,
      "stateMutability": "view",
      "type": "function"
    },
    {
      "constant": false,
      "inputs": [
        {
          "name": "spender",
          "type": "address"
        },
        {
          "name": "addedValue",
          "type": "uint256"
        }
      ],
      "name": "increaseAllowance",
      "outputs": [
        {
          "name": "",
          "type": "bool"
        }
      ],
      "payable": false,
      "stateMutability": "nonpayable",
      "type": "function"
    },
    {
      "constant": true,
      "inputs": [],
      "name": "BOOTSTRAP_THRESHOLD",
      "outputs": [
        {
          "name": "",
          "type": "uint256"
        }
      ],
      "payable": false,
      "stateMutability": "view",
      "type": "function"
    },
    {
      "constant": true,
      "inputs": [
        {
          "name": "",
          "type": "address"
        }
      ],
      "name": "heroStatuses",
      "outputs": [
        {
          "name": "",
          "type": "uint256"
        }
      ],
      "payable": false,
      "stateMutability": "view",
      "type": "function"
    },
    {
      "constant": true,
      "inputs": [],
      "name": "totalTreesPlanted",
      "outputs": [
        {
          "name": "",
          "type": "uint256"
        }
      ],
      "payable": false,
      "stateMutability": "view",
      "type": "function"
    },
    {
      "constant": true,
      "inputs": [
        {
          "name": "account",
          "type": "address"
        }
      ],
      "name": "balanceOf",
      "outputs": [
        {
          "name": "",
          "type": "uint256"
        }
      ],
      "payable": false,
      "stateMutability": "view",
      "type": "function"
    },
    {
      "constant": true,
      "inputs": [],
      "name": "GOAL",
      "outputs": [
        {
          "name": "",
          "type": "uint256"
        }
      ],
      "payable": false,
      "stateMutability": "view",
      "type": "function"
    },
    {
      "constant": false,
      "inputs": [
        {
          "name": "spender",
          "type": "address"
        },
        {
          "name": "subtractedValue",
          "type": "uint256"
        }
      ],
      "name": "decreaseAllowance",
      "outputs": [
        {
          "name": "",
          "type": "bool"
        }
      ],
      "payable": false,
      "stateMutability": "nonpayable",
      "type": "function"
    },
    {
      "constant": false,
      "inputs": [
        {
          "name": "recipient",
          "type": "address"
        },
        {
          "name": "amount",
          "type": "uint256"
        }
      ],
      "name": "transfer",
      "outputs": [
        {
          "name": "",
          "type": "bool"
        }
      ],
      "payable": false,
      "stateMutability": "nonpayable",
      "type": "function"
    },
    {
      "constant": true,
      "inputs": [
        {
          "name": "",
          "type": "address"
        }
      ],
      "name": "treeBalances",
      "outputs": [
        {
          "name": "",
          "type": "uint256"
        }
      ],
      "payable": false,
      "stateMutability": "view",
      "type": "function"
    },
    {
      "constant": true,
      "inputs": [],
      "name": "totalHeroStatus",
      "outputs": [
        {
          "name": "",
          "type": "uint256"
        }
      ],
      "payable": false,
      "stateMutability": "view",
      "type": "function"
    },
    {
      "constant": true,
      "inputs": [
        {
          "name": "owner",
          "type": "address"
        },
        {
          "name": "spender",
          "type": "address"
        }
      ],
      "name": "allowance",
      "outputs": [
        {
          "name": "",
          "type": "uint256"
        }
      ],
      "payable": false,
      "stateMutability": "view",
      "type": "function"
    },
    {
      "constant": true,
      "inputs": [],
      "name": "untreeExchange",
      "outputs": [
        {
          "name": "",
          "type": "address"
        }
      ],
      "payable": false,
      "stateMutability": "view",
      "type": "function"
    },
    {
      "inputs": [],
      "payable": false,
      "stateMutability": "nonpayable",
      "type": "constructor"
    },
    {
      "payable": true,
      "stateMutability": "payable",
      "type": "fallback"
    },
    {
      "anonymous": false,
      "inputs": [
        {
          "indexed": true,
          "name": "from",
          "type": "address"
        },
        {
          "indexed": true,
          "name": "to",
          "type": "address"
        },
        {
          "indexed": false,
          "name": "value",
          "type": "uint256"
        }
      ],
      "name": "Transfer",
      "type": "event"
    },
    {
      "anonymous": false,
      "inputs": [
        {
          "indexed": true,
          "name": "owner",
          "type": "address"
        },
        {
          "indexed": true,
          "name": "spender",
          "type": "address"
        },
        {
          "indexed": false,
          "name": "value",
          "type": "uint256"
        }
      ],
      "name": "Approval",
      "type": "event"
    },
    {
      "constant": false,
      "inputs": [
        {
          "name": "_uniswap",
          "type": "address"
        },
        {
          "name": "_untreeExchange",
          "type": "address"
        }
      ],
      "name": "setUniswap",
      "outputs": [],
      "payable": false,
      "stateMutability": "nonpayable",
      "type": "function"
    },
    {
      "constant": false,
      "inputs": [],
      "name": "plant",
      "outputs": [],
      "payable": true,
      "stateMutability": "payable",
      "type": "function"
    },
    {
      "constant": false,
      "inputs": [],
      "name": "accountForExternalities",
      "outputs": [],
      "payable": true,
      "stateMutability": "payable",
      "type": "function"
    }
  ],
  "bytecode": "0x608060405234801561001057600080fd5b5061234a806100206000396000f3fe6080604052600436106101355760003560e01c806370a08231116100ab578063a9059cbb1161006f578063a9059cbb146107b1578063acd9534a14610824578063bdf1ab6914610889578063c934d25914610893578063dd62ed3e146108be578063eb0f9ad31461094357610135565b806370a0823114610633578063779b3c5c14610698578063997235ac146106a2578063a1bed0be14610713578063a457c2d71461073e57610135565b80633189097b116100fd5780633189097b146104af57806333f193fe146104da578063395093511461050557806344da05ef1461057857806358562947146105a35780636dd4d84c1461060857610135565b80630777cb62146102d0578063095ea7b31461032757806318160ddd1461039a57806323b872dd146103c55780632681f7e414610458575b600073ffffffffffffffffffffffffffffffffffffffff16600360009054906101000a900473ffffffffffffffffffffffffffffffffffffffff1673ffffffffffffffffffffffffffffffffffffffff1614156101fa576040517f08c379a000000000000000000000000000000000000000000000000000000000815260040180806020018281038252601d8152602001807f556e697377617020636f6e7472616374206d757374206265207365742e00000081525060200191505060405180910390fd5b60008036905014610273576040517f08c379a00000000000000000000000000000000000000000000000000000000081526004018080602001828103825260168152602001807f4e6f20646174612063616e206265207061737365642e0000000000000000000081525060200191505060405180910390fd5b7308ff27edd8cc750d2ee8a44105b3ce6db2963a5c73ffffffffffffffffffffffffffffffffffffffff166108fc349081150290604051600060405180830381858888f193505050501580156102cd573d6000803e3d6000fd5b50005b3480156102dc57600080fd5b506102e561099a565b604051808273ffffffffffffffffffffffffffffffffffffffff1673ffffffffffffffffffffffffffffffffffffffff16815260200191505060405180910390f35b34801561033357600080fd5b506103806004803603604081101561034a57600080fd5b81019080803573ffffffffffffffffffffffffffffffffffffffff169060200190929190803590602001909291905050506109b2565b604051808215151515815260200191505060405180910390f35b3480156103a657600080fd5b506103af6109c9565b6040518082815260200191505060405180910390f35b3480156103d157600080fd5b5061043e600480360360608110156103e857600080fd5b81019080803573ffffffffffffffffffffffffffffffffffffffff169060200190929190803573ffffffffffffffffffffffffffffffffffffffff169060200190929190803590602001909291905050506109d3565b604051808215151515815260200191505060405180910390f35b34801561046457600080fd5b5061046d610a84565b604051808273ffffffffffffffffffffffffffffffffffffffff1673ffffffffffffffffffffffffffffffffffffffff16815260200191505060405180910390f35b3480156104bb57600080fd5b506104c4610aaa565b6040518082815260200191505060405180910390f35b3480156104e657600080fd5b506104ef610aaf565b6040518082815260200191505060405180910390f35b34801561051157600080fd5b5061055e6004803603604081101561052857600080fd5b81019080803573ffffffffffffffffffffffffffffffffffffffff16906020019092919080359060200190929190505050610abb565b604051808215151515815260200191505060405180910390f35b34801561058457600080fd5b5061058d610b60565b6040518082815260200191505060405180910390f35b3480156105af57600080fd5b506105f2600480360360208110156105c657600080fd5b81019080803573ffffffffffffffffffffffffffffffffffffffff169060200190929190505050610b67565b6040518082815260200191505060405180910390f35b34801561061457600080fd5b5061061d610b7f565b6040518082815260200191505060405180910390f35b34801561063f57600080fd5b506106826004803603602081101561065657600080fd5b81019080803573ffffffffffffffffffffffffffffffffffffffff169060200190929190505050610b85565b6040518082815260200191505060405180910390f35b6106a0610bcd565b005b3480156106ae57600080fd5b50610711600480360360408110156106c557600080fd5b81019080803573ffffffffffffffffffffffffffffffffffffffff169060200190929190803573ffffffffffffffffffffffffffffffffffffffff16906020019092919050505061104b565b005b34801561071f57600080fd5b50610728611217565b6040518082815260200191505060405180910390f35b34801561074a57600080fd5b506107976004803603604081101561076157600080fd5b81019080803573ffffffffffffffffffffffffffffffffffffffff16906020019092919080359060200190929190505050611228565b604051808215151515815260200191505060405180910390f35b3480156107bd57600080fd5b5061080a600480360360408110156107d457600080fd5b81019080803573ffffffffffffffffffffffffffffffffffffffff169060200190929190803590602001909291905050506112cd565b604051808215151515815260200191505060405180910390f35b34801561083057600080fd5b506108736004803603602081101561084757600080fd5b81019080803573ffffffffffffffffffffffffffffffffffffffff1690602001909291905050506112e4565b6040518082815260200191505060405180910390f35b6108916112fc565b005b34801561089f57600080fd5b506108a8611712565b6040518082815260200191505060405180910390f35b3480156108ca57600080fd5b5061092d600480360360408110156108e157600080fd5b81019080803573ffffffffffffffffffffffffffffffffffffffff169060200190929190803573ffffffffffffffffffffffffffffffffffffffff169060200190929190505050611718565b6040518082815260200191505060405180910390f35b34801561094f57600080fd5b5061095861179f565b604051808273ffffffffffffffffffffffffffffffffffffffff1673ffffffffffffffffffffffffffffffffffffffff16815260200191505060405180910390f35b7308ff27edd8cc750d2ee8a44105b3ce6db2963a5c81565b60006109bf3384846117c5565b6001905092915050565b6000600254905090565b60006109e08484846119bc565b610a798433610a7485600160008a73ffffffffffffffffffffffffffffffffffffffff1673ffffffffffffffffffffffffffffffffffffffff16815260200190815260200160002060003373ffffffffffffffffffffffffffffffffffffffff1673ffffffffffffffffffffffffffffffffffffffff16815260200190815260200160002054611c5890919063ffffffff16565b6117c5565b600190509392505050565b600360009054906101000a900473ffffffffffffffffffffffffffffffffffffffff1681565b606281565b67016345785d8a000081565b6000610b563384610b5185600160003373ffffffffffffffffffffffffffffffffffffffff1673ffffffffffffffffffffffffffffffffffffffff16815260200190815260200160002060008973ffffffffffffffffffffffffffffffffffffffff1673ffffffffffffffffffffffffffffffffffffffff16815260200190815260200160002054611ce190919063ffffffff16565b6117c5565b6001905092915050565b620f424081565b60066020528060005260406000206000915090505481565b60075481565b60008060008373ffffffffffffffffffffffffffffffffffffffff1673ffffffffffffffffffffffffffffffffffffffff168152602001908152602001600020549050919050565b600073ffffffffffffffffffffffffffffffffffffffff16600360009054906101000a900473ffffffffffffffffffffffffffffffffffffffff1673ffffffffffffffffffffffffffffffffffffffff161415610c92576040517f08c379a000000000000000000000000000000000000000000000000000000000815260040180806020018281038252601d8152602001807f556e697377617020636f6e7472616374206d757374206265207365742e00000081525060200191505060405180910390fd5b6000620f42406007541015610cb15767016345785d8a00009050610db0565b600360009054906101000a900473ffffffffffffffffffffffffffffffffffffffff1673ffffffffffffffffffffffffffffffffffffffff166341976e09600460009054906101000a900473ffffffffffffffffffffffffffffffffffffffff166040518263ffffffff1660e01b8152600401808273ffffffffffffffffffffffffffffffffffffffff1673ffffffffffffffffffffffffffffffffffffffff16815260200191505060206040518083038186803b158015610d7257600080fd5b505afa158015610d86573d6000803e3d6000fd5b505050506040513d6020811015610d9c57600080fd5b810190808051906020019092919050505090505b620186a03411610e0b576040517f08c379a00000000000000000000000000000000000000000000000000000000081526004018080602001828103825260398152602001806122e66039913960400191505060405180910390fd5b6000670de0b6b3a764000082340281610e2057fe5b049050610e3881600754611ce190919063ffffffff16565b6007819055506c25dd85d670d35ec9bec000000060075410610eee57610ea681600560003373ffffffffffffffffffffffffffffffffffffffff1673ffffffffffffffffffffffffffffffffffffffff16815260200190815260200160002054611ce190919063ffffffff16565b600560003373ffffffffffffffffffffffffffffffffffffffff1673ffffffffffffffffffffffffffffffffffffffff16815260200190815260200160002081905550610fec565b6000610f37610f28610f186c25dd85d670d35ec9bec0000000600754611d6990919063ffffffff16565b6001611c5890919063ffffffff16565b83611df890919063ffffffff16565b9050610f433382611e7e565b610fa781610f9984600560003373ffffffffffffffffffffffffffffffffffffffff1673ffffffffffffffffffffffffffffffffffffffff16815260200190815260200160002054611ce190919063ffffffff16565b611c5890919063ffffffff16565b600560003073ffffffffffffffffffffffffffffffffffffffff1673ffffffffffffffffffffffffffffffffffffffff16815260200190815260200160002081905550505b7308ff27edd8cc750d2ee8a44105b3ce6db2963a5c73ffffffffffffffffffffffffffffffffffffffff166108fc349081150290604051600060405180830381858888f19350505050158015611046573d6000803e3d6000fd5b505050565b600073ffffffffffffffffffffffffffffffffffffffff168273ffffffffffffffffffffffffffffffffffffffff1614156110ee576040517f08c379a00000000000000000000000000000000000000000000000000000000081526004018080602001828103825260198152602001807f556e6973776170206d757374206e6f74206265206e756c6c2e0000000000000081525060200191505060405180910390fd5b600073ffffffffffffffffffffffffffffffffffffffff168173ffffffffffffffffffffffffffffffffffffffff161415611191576040517f08c379a00000000000000000000000000000000000000000000000000000000081526004018080602001828103825260208152602001807f756e7472656545786368616e6765206d757374206e6f74206265206e756c6c2e81525060200191505060405180910390fd5b81600360006101000a81548173ffffffffffffffffffffffffffffffffffffffff021916908373ffffffffffffffffffffffffffffffffffffffff16021790555080600460006101000a81548173ffffffffffffffffffffffffffffffffffffffff021916908373ffffffffffffffffffffffffffffffffffffffff1602179055505050565b6c25dd85d670d35ec9bec000000081565b60006112c333846112be85600160003373ffffffffffffffffffffffffffffffffffffffff1673ffffffffffffffffffffffffffffffffffffffff16815260200190815260200160002060008973ffffffffffffffffffffffffffffffffffffffff1673ffffffffffffffffffffffffffffffffffffffff16815260200190815260200160002054611c5890919063ffffffff16565b6117c5565b6001905092915050565b60006112da3384846119bc565b6001905092915050565b60056020528060005260406000206000915090505481565b600073ffffffffffffffffffffffffffffffffffffffff16600360009054906101000a900473ffffffffffffffffffffffffffffffffffffffff1673ffffffffffffffffffffffffffffffffffffffff1614156113c1576040517f08c379a000000000000000000000000000000000000000000000000000000000815260040180806020018281038252601d8152602001807f556e697377617020636f6e7472616374206d757374206265207365742e00000081525060200191505060405180910390fd5b6000620f424060075410156113e05767016345785d8a000090506114df565b600360009054906101000a900473ffffffffffffffffffffffffffffffffffffffff1673ffffffffffffffffffffffffffffffffffffffff166341976e09600460009054906101000a900473ffffffffffffffffffffffffffffffffffffffff166040518263ffffffff1660e01b8152600401808273ffffffffffffffffffffffffffffffffffffffff1673ffffffffffffffffffffffffffffffffffffffff16815260200191505060206040518083038186803b1580156114a157600080fd5b505afa1580156114b5573d6000803e3d6000fd5b505050506040513d60208110156114cb57600080fd5b810190808051906020019092919050505090505b620186a0341161153a576040517f08c379a00000000000000000000000000000000000000000000000000000000081526004018080602001828103825260398152602001806122e66039913960400191505060405180910390fd5b6000670de0b6b3a76400008234028161154f57fe5b049050633b9aca0081116115ae576040517f08c379a00000000000000000000000000000000000000000000000000000000081526004018080602001828103825260228152602001806122396022913960400191505060405180910390fd5b6115b83382611e8c565b60006115d66115c56109c9565b600754611c5890919063ffffffff16565b905060006115ff6115f08384611df890919063ffffffff16565b84611d6990919063ffffffff16565b905061161681600854611ce190919063ffffffff16565b60088190555061166e81600660003373ffffffffffffffffffffffffffffffffffffffff1673ffffffffffffffffffffffffffffffffffffffff16815260200190815260200160002054611ce190919063ffffffff16565b600660003373ffffffffffffffffffffffffffffffffffffffff1673ffffffffffffffffffffffffffffffffffffffff168152602001908152602001600020819055507308ff27edd8cc750d2ee8a44105b3ce6db2963a5c73ffffffffffffffffffffffffffffffffffffffff166108fc349081150290604051600060405180830381858888f1935050505015801561170b573d6000803e3d6000fd5b5050505050565b60085481565b6000600160008473ffffffffffffffffffffffffffffffffffffffff1673ffffffffffffffffffffffffffffffffffffffff16815260200190815260200160002060008373ffffffffffffffffffffffffffffffffffffffff1673ffffffffffffffffffffffffffffffffffffffff16815260200190815260200160002054905092915050565b600460009054906101000a900473ffffffffffffffffffffffffffffffffffffffff1681565b600073ffffffffffffffffffffffffffffffffffffffff168373ffffffffffffffffffffffffffffffffffffffff16141561184b576040517f08c379a00000000000000000000000000000000000000000000000000000000081526004018080602001828103825260248152602001806122c26024913960400191505060405180910390fd5b600073ffffffffffffffffffffffffffffffffffffffff168273ffffffffffffffffffffffffffffffffffffffff1614156118d1576040517f08c379a00000000000000000000000000000000000000000000000000000000081526004018080602001828103825260228152602001806122176022913960400191505060405180910390fd5b80600160008573ffffffffffffffffffffffffffffffffffffffff1673ffffffffffffffffffffffffffffffffffffffff16815260200190815260200160002060008473ffffffffffffffffffffffffffffffffffffffff1673ffffffffffffffffffffffffffffffffffffffff168152602001908152602001600020819055508173ffffffffffffffffffffffffffffffffffffffff168373ffffffffffffffffffffffffffffffffffffffff167f8c5be1e5ebec7d5bd14f71427d1e84f3dd0314c0f7b2291e5b200ac8c7c3b925836040518082815260200191505060405180910390a3505050565b600073ffffffffffffffffffffffffffffffffffffffff168373ffffffffffffffffffffffffffffffffffffffff161415611a42576040517f08c379a000000000000000000000000000000000000000000000000000000000815260040180806020018281038252602581526020018061229d6025913960400191505060405180910390fd5b600073ffffffffffffffffffffffffffffffffffffffff168273ffffffffffffffffffffffffffffffffffffffff161415611ac8576040517f08c379a00000000000000000000000000000000000000000000000000000000081526004018080602001828103825260238152602001806121f46023913960400191505060405180910390fd5b611b19816000808673ffffffffffffffffffffffffffffffffffffffff1673ffffffffffffffffffffffffffffffffffffffff16815260200190815260200160002054611c5890919063ffffffff16565b6000808573ffffffffffffffffffffffffffffffffffffffff1673ffffffffffffffffffffffffffffffffffffffff16815260200190815260200160002081905550611bac816000808573ffffffffffffffffffffffffffffffffffffffff1673ffffffffffffffffffffffffffffffffffffffff16815260200190815260200160002054611ce190919063ffffffff16565b6000808473ffffffffffffffffffffffffffffffffffffffff1673ffffffffffffffffffffffffffffffffffffffff168152602001908152602001600020819055508173ffffffffffffffffffffffffffffffffffffffff168373ffffffffffffffffffffffffffffffffffffffff167fddf252ad1be2c89b69c2b068fc378daa952ba7f163c4a11628f55a4df523b3ef836040518082815260200191505060405180910390a3505050565b600082821115611cd0576040517f08c379a000000000000000000000000000000000000000000000000000000000815260040180806020018281038252601e8152602001807f536166654d6174683a207375627472616374696f6e206f766572666c6f77000081525060200191505060405180910390fd5b600082840390508091505092915050565b600080828401905083811015611d5f576040517f08c379a000000000000000000000000000000000000000000000000000000000815260040180806020018281038252601b8152602001807f536166654d6174683a206164646974696f6e206f766572666c6f77000000000081525060200191505060405180910390fd5b8091505092915050565b6000808211611de0576040517f08c379a000000000000000000000000000000000000000000000000000000000815260040180806020018281038252601a8152602001807f536166654d6174683a206469766973696f6e206279207a65726f00000000000081525060200191505060405180910390fd5b6000828481611deb57fe5b0490508091505092915050565b600080831415611e0b5760009050611e78565b6000828402905082848281611e1c57fe5b0414611e73576040517f08c379a000000000000000000000000000000000000000000000000000000000815260040180806020018281038252602181526020018061225b6021913960400191505060405180910390fd5b809150505b92915050565b611e888282611e9a565b5050565b611e968282612055565b5050565b600073ffffffffffffffffffffffffffffffffffffffff168273ffffffffffffffffffffffffffffffffffffffff161415611f3d576040517f08c379a000000000000000000000000000000000000000000000000000000000815260040180806020018281038252601f8152602001807f45524332303a206d696e7420746f20746865207a65726f20616464726573730081525060200191505060405180910390fd5b611f5281600254611ce190919063ffffffff16565b600281905550611fa9816000808573ffffffffffffffffffffffffffffffffffffffff1673ffffffffffffffffffffffffffffffffffffffff16815260200190815260200160002054611ce190919063ffffffff16565b6000808473ffffffffffffffffffffffffffffffffffffffff1673ffffffffffffffffffffffffffffffffffffffff168152602001908152602001600020819055508173ffffffffffffffffffffffffffffffffffffffff16600073ffffffffffffffffffffffffffffffffffffffff167fddf252ad1be2c89b69c2b068fc378daa952ba7f163c4a11628f55a4df523b3ef836040518082815260200191505060405180910390a35050565b600073ffffffffffffffffffffffffffffffffffffffff168273ffffffffffffffffffffffffffffffffffffffff1614156120db576040517f08c379a000000000000000000000000000000000000000000000000000000000815260040180806020018281038252602181526020018061227c6021913960400191505060405180910390fd5b6120f081600254611c5890919063ffffffff16565b600281905550612147816000808573ffffffffffffffffffffffffffffffffffffffff1673ffffffffffffffffffffffffffffffffffffffff16815260200190815260200160002054611c5890919063ffffffff16565b6000808473ffffffffffffffffffffffffffffffffffffffff1673ffffffffffffffffffffffffffffffffffffffff16815260200190815260200160002081905550600073ffffffffffffffffffffffffffffffffffffffff168273ffffffffffffffffffffffffffffffffffffffff167fddf252ad1be2c89b69c2b068fc378daa952ba7f163c4a11628f55a4df523b3ef836040518082815260200191505060405180910390a3505056fe45524332303a207472616e7366657220746f20746865207a65726f206164647265737345524332303a20617070726f766520746f20746865207a65726f20616464726573734d696e696d756d20616d6f756e74206f6620756e747265652072657175697265642e536166654d6174683a206d756c7469706c69636174696f6e206f766572666c6f7745524332303a206275726e2066726f6d20746865207a65726f206164647265737345524332303a207472616e736665722066726f6d20746865207a65726f206164647265737345524332303a20617070726f76652066726f6d20746865207a65726f2061646472657373546f6f20736d616c6c205765692076616c75657320646973616c6c6f77656420746f2061766f696420726f756e64696e67206572726f72732ea165627a7a723058209ebe1ea4ae3b84e21e9d2bf869a437ba3e4adf93e7cc28114c4aa756099db87b0029",
  "source": "pragma solidity >=0.5.0 <0.6.0;\n\n// Voor jou, en voor je toekomst, mijn liefste Siri\n// een gelukkige tiende verjaardag!\n\nimport \"openzeppelin-solidity/contracts/math/SafeMath.sol\";\n\nimport \"./IT6.sol\";\nimport \"../untree/unTree.sol\";\nimport \"../uniswap/IUniswap.sol\";\n\ncontract TerraSix is IT6, Untree {\n\n    /* Using */\n    using SafeMath for uint256;\n\n    /* Constants */\n\n    /** Goal: plant 3 trillion new trees on Earth\n     * expressed in Tree tokens with 18 decimal places of precision.\n     */\n    uint256 public constant GOAL = uint256(3000000000000000000000000000000);\n\n    /** Bootstrap price 1 unTree until an initial supply is minted\n     * Price in unTree/Wei, set to 0.1 ETH\n     */\n    uint256 public constant BOOTSTRAP_PRICE = uint256(100000000000000000);\n\n    /** Bootstrap threshold, number of unTrees to be minted before referring\n     * to Uniswap contract for unTree/ETH price; set to one million unTree.\n     */\n    uint256 public constant BOOTSTRAP_THRESHOLD = uint256(1000000);\n\n    /** Flow minimally 98% onwards to reforestation DAO */\n    uint256 public constant FLOW = uint256(98);\n\n    /* Storage */\n\n    /** Uniswap contract for price point Untree/ETH */\n    IUniswap public uniswap;\n\n    /** Uniswap untree exchange contract */\n    address public untreeExchange;\n\n    /** Address of reforestationDAO\n     * DAO solely dedicated to funding projects for\n     * reforestation, preservation and monitoring of forests\n     * all over the world.\n     */\n    address payable public constant reforestationDAO = 0x08Ff27EDD8CC750d2EE8A44105B3CE6dB2963a5c;\n\n    /** Tree balances, non-transferable */\n    mapping(address => uint256) public treeBalances;\n\n    /** Hero status, non-transferable reputation */\n    mapping(address => uint256) public heroStatuses;\n\n    /** Total trees planted */\n    uint256 public totalTreesPlanted;\n\n    /** Total hero status */\n    uint256 public totalHeroStatus;\n\n    modifier uniswapSet()\n    {\n        require(address(uniswap) != address(0),\n            \"Uniswap contract must be set.\");\n        _;\n    }\n\n    /* Special functions */\n\n    /** fallback function accepts ETH as collateral for\n     *  repayments of externalities - as a donation\n     */\n    function()\n        external\n        payable\n        uniswapSet\n    {\n        require(msg.data.length == 0,\n            \"No data can be passed.\");\n        // it's a donation, just transfer it onwards\n        // to the reforestationDAO\n        reforestationDAO.transfer(msg.value);\n    }\n\n    constructor(\n        // address payable _reforestationDAO,\n        // IUniswap _uniswap,\n        // address _untreeExchange\n    )\n        public\n    {\n        // TODO: write requirements, addresses not null.\n        // reforestationDAO = address('0x08Ff27EDD8CC750d2EE8A44105B3CE6dB2963a5c'); //_reforestationDAO;\n        // uniswap = _uniswap;\n        // untreeExchange = _untreeExchange;\n    }\n\n    // shortcut to simplify demo deployment\n    function setUniswap(IUniswap _uniswap, address _untreeExchange)\n        external\n    {\n        require(address(_uniswap) != address(0),\n            \"Uniswap must not be null.\");\n        require(address(_untreeExchange) != address(0),\n            \"untreeExchange must not be null.\");\n        uniswap = _uniswap;\n        untreeExchange = _untreeExchange;\n    }\n\n    function plant()\n        external\n        payable\n        uniswapSet\n    {\n        uint256 price;\n        if (totalTreesPlanted < BOOTSTRAP_THRESHOLD) {\n            price = BOOTSTRAP_PRICE;\n        } else {\n            price = uniswap.getPrice(untreeExchange);\n        }\n\n        require(msg.value > 100000,\n            \"Too small Wei values disallowed to avoid rounding errors.\");\n\n        // note: this is probably all sorts-of-wrong, but it's 3am, before the\n        // hackathon deadline\n        // mint trees and untrees in equal amount\n        uint256 trees = msg.value * price / uint256(10**18);\n\n        totalTreesPlanted = totalTreesPlanted.add(trees);\n\n        if (totalTreesPlanted >= GOAL) {\n            // give user all trees\n            treeBalances[msg.sender] = treeBalances[msg.sender].add(trees);\n            // TODO; quarterly account for tree balances\n        } else {\n            // issue unTrees and Trees to user\n            uint256 untrees = trees.mul( uint256(1).sub( totalTreesPlanted.div(GOAL) ) );\n            issueUntrees(msg.sender, untrees);\n            treeBalances[address(this)] = (treeBalances[msg.sender].add(trees)).sub(untrees);\n        }\n\n        // on planting all value is sent to reforestationDAO\n        reforestationDAO.transfer(msg.value);\n    }\n\n    function accountForExternalities()\n        external\n        payable\n        uniswapSet\n    {\n        uint256 price;\n        if (totalTreesPlanted < BOOTSTRAP_THRESHOLD) {\n            price = BOOTSTRAP_PRICE;\n        } else {\n            price = uniswap.getPrice(untreeExchange);\n        }\n        require(msg.value > 100000,\n            \"Too small Wei values disallowed to avoid rounding errors.\");\n       \n        uint256 untrees = msg.value * price / uint256(10**18);\n\n        require(untrees > 10**9,\n            \"Minimum amount of untree required.\");\n\n        burnUntree(msg.sender, untrees);\n\n        uint256 deltaTrees = totalTreesPlanted.sub(totalSupply());\n\n        // HERO status is a quadratic bonding curve in deltaTrees;\n        // because paying off your externalities today, beats paying them off tomorrow.\n        uint256 hero = untrees.div(deltaTrees.mul(deltaTrees));\n\n        totalHeroStatus = totalHeroStatus.add(hero);\n        heroStatuses[msg.sender] = heroStatuses[msg.sender].add(hero);\n\n        // TODO; hold off (100 - FLOW)/100 for Tree payouts\n\n        reforestationDAO.transfer(msg.value);\n    }\n}",
  "sourcePath": "/Users/ben/terrasix/terrasix-dao/contracts/terrasix/TerraSix.sol",
  "compiler": {
    "name": "solc",
    "version": "0.5.8+commit.23d335f2.Emscripten.clang"
  },
  "schemaVersion": "3.0.13",
  "updatedAt": "2019-08-25T04:04:51.007Z",
  "devdoc": {
    "methods": {
      "allowance(address,address)": {
        "details": "See `IERC20.allowance`."
      },
      "approve(address,uint256)": {
        "details": "See `IERC20.approve`.     * Requirements:     * - `spender` cannot be the zero address."
      },
      "balanceOf(address)": {
        "details": "See `IERC20.balanceOf`."
      },
      "decreaseAllowance(address,uint256)": {
        "details": "Atomically decreases the allowance granted to `spender` by the caller.     * This is an alternative to `approve` that can be used as a mitigation for problems described in `IERC20.approve`.     * Emits an `Approval` event indicating the updated allowance.     * Requirements:     * - `spender` cannot be the zero address. - `spender` must have allowance for the caller of at least `subtractedValue`."
      },
      "increaseAllowance(address,uint256)": {
        "details": "Atomically increases the allowance granted to `spender` by the caller.     * This is an alternative to `approve` that can be used as a mitigation for problems described in `IERC20.approve`.     * Emits an `Approval` event indicating the updated allowance.     * Requirements:     * - `spender` cannot be the zero address."
      },
      "totalSupply()": {
        "details": "See `IERC20.totalSupply`."
      },
      "transfer(address,uint256)": {
        "details": "See `IERC20.transfer`.     * Requirements:     * - `recipient` cannot be the zero address. - the caller must have a balance of at least `amount`."
      },
      "transferFrom(address,address,uint256)": {
        "details": "See `IERC20.transferFrom`.     * Emits an `Approval` event indicating the updated allowance. This is not required by the EIP. See the note at the beginning of `ERC20`;     * Requirements: - `sender` and `recipient` cannot be the zero address. - `sender` must have a balance of at least `value`. - the caller must have allowance for `sender`'s tokens of at least `amount`."
      }
    }
  },
  "userdoc": {
    "methods": {}
  }
}