{
  "contractName": "TerraSix",
  "abi": [
    {
      "constant": true,
      "inputs": [],
      "name": "reforestationDAO",
      "outputs": [
        {
          "name": "",
          "type": "address"
        }
      ],
      "payable": false,
      "stateMutability": "view",
      "type": "function"
    },
    {
      "constant": false,
      "inputs": [
        {
          "name": "spender",
          "type": "address"
        },
        {
          "name": "value",
          "type": "uint256"
        }
      ],
      "name": "approve",
      "outputs": [
        {
          "name": "",
          "type": "bool"
        }
      ],
      "payable": false,
      "stateMutability": "nonpayable",
      "type": "function"
    },
    {
      "constant": true,
      "inputs": [],
      "name": "totalSupply",
      "outputs": [
        {
          "name": "",
          "type": "uint256"
        }
      ],
      "payable": false,
      "stateMutability": "view",
      "type": "function"
    },
    {
      "constant": false,
      "inputs": [
        {
          "name": "sender",
          "type": "address"
        },
        {
          "name": "recipient",
          "type": "address"
        },
        {
          "name": "amount",
          "type": "uint256"
        }
      ],
      "name": "transferFrom",
      "outputs": [
        {
          "name": "",
          "type": "bool"
        }
      ],
      "payable": false,
      "stateMutability": "nonpayable",
      "type": "function"
    },
    {
      "constant": true,
      "inputs": [],
      "name": "uniswap",
      "outputs": [
        {
          "name": "",
          "type": "address"
        }
      ],
      "payable": false,
      "stateMutability": "view",
      "type": "function"
    },
    {
      "constant": true,
      "inputs": [],
      "name": "FLOW",
      "outputs": [
        {
          "name": "",
          "type": "uint256"
        }
      ],
      "payable": false,
      "stateMutability": "view",
      "type": "function"
    },
    {
      "constant": true,
      "inputs": [],
      "name": "BOOTSTRAP_PRICE",
      "outputs": [
        {
          "name": "",
          "type": "uint256"
        }
      ],
      "payable": false,
      "stateMutability": "view",
      "type": "function"
    },
    {
      "constant": false,
      "inputs": [
        {
          "name": "spender",
          "type": "address"
        },
        {
          "name": "addedValue",
          "type": "uint256"
        }
      ],
      "name": "increaseAllowance",
      "outputs": [
        {
          "name": "",
          "type": "bool"
        }
      ],
      "payable": false,
      "stateMutability": "nonpayable",
      "type": "function"
    },
    {
      "constant": true,
      "inputs": [],
      "name": "BOOTSTRAP_THRESHOLD",
      "outputs": [
        {
          "name": "",
          "type": "uint256"
        }
      ],
      "payable": false,
      "stateMutability": "view",
      "type": "function"
    },
    {
      "constant": true,
      "inputs": [
        {
          "name": "",
          "type": "address"
        }
      ],
      "name": "heroStatuses",
      "outputs": [
        {
          "name": "",
          "type": "uint256"
        }
      ],
      "payable": false,
      "stateMutability": "view",
      "type": "function"
    },
    {
      "constant": true,
      "inputs": [],
      "name": "totalTreesPlanted",
      "outputs": [
        {
          "name": "",
          "type": "uint256"
        }
      ],
      "payable": false,
      "stateMutability": "view",
      "type": "function"
    },
    {
      "constant": true,
      "inputs": [
        {
          "name": "account",
          "type": "address"
        }
      ],
      "name": "balanceOf",
      "outputs": [
        {
          "name": "",
          "type": "uint256"
        }
      ],
      "payable": false,
      "stateMutability": "view",
      "type": "function"
    },
    {
      "constant": true,
      "inputs": [],
      "name": "GOAL",
      "outputs": [
        {
          "name": "",
          "type": "uint256"
        }
      ],
      "payable": false,
      "stateMutability": "view",
      "type": "function"
    },
    {
      "constant": false,
      "inputs": [
        {
          "name": "spender",
          "type": "address"
        },
        {
          "name": "subtractedValue",
          "type": "uint256"
        }
      ],
      "name": "decreaseAllowance",
      "outputs": [
        {
          "name": "",
          "type": "bool"
        }
      ],
      "payable": false,
      "stateMutability": "nonpayable",
      "type": "function"
    },
    {
      "constant": false,
      "inputs": [
        {
          "name": "recipient",
          "type": "address"
        },
        {
          "name": "amount",
          "type": "uint256"
        }
      ],
      "name": "transfer",
      "outputs": [
        {
          "name": "",
          "type": "bool"
        }
      ],
      "payable": false,
      "stateMutability": "nonpayable",
      "type": "function"
    },
    {
      "constant": true,
      "inputs": [
        {
          "name": "",
          "type": "address"
        }
      ],
      "name": "treeBalances",
      "outputs": [
        {
          "name": "",
          "type": "uint256"
        }
      ],
      "payable": false,
      "stateMutability": "view",
      "type": "function"
    },
    {
      "constant": true,
      "inputs": [],
      "name": "totalHeroStatus",
      "outputs": [
        {
          "name": "",
          "type": "uint256"
        }
      ],
      "payable": false,
      "stateMutability": "view",
      "type": "function"
    },
    {
      "constant": true,
      "inputs": [
        {
          "name": "owner",
          "type": "address"
        },
        {
          "name": "spender",
          "type": "address"
        }
      ],
      "name": "allowance",
      "outputs": [
        {
          "name": "",
          "type": "uint256"
        }
      ],
      "payable": false,
      "stateMutability": "view",
      "type": "function"
    },
    {
      "constant": true,
      "inputs": [],
      "name": "untreeExchange",
      "outputs": [
        {
          "name": "",
          "type": "address"
        }
      ],
      "payable": false,
      "stateMutability": "view",
      "type": "function"
    },
    {
      "inputs": [
        {
          "name": "_reforestationDAO",
          "type": "address"
        },
        {
          "name": "_uniswap",
          "type": "address"
        },
        {
          "name": "_untreeExchange",
          "type": "address"
        }
      ],
      "payable": false,
      "stateMutability": "nonpayable",
      "type": "constructor"
    },
    {
      "payable": true,
      "stateMutability": "payable",
      "type": "fallback"
    },
    {
      "anonymous": false,
      "inputs": [
        {
          "indexed": true,
          "name": "from",
          "type": "address"
        },
        {
          "indexed": true,
          "name": "to",
          "type": "address"
        },
        {
          "indexed": false,
          "name": "value",
          "type": "uint256"
        }
      ],
      "name": "Transfer",
      "type": "event"
    },
    {
      "anonymous": false,
      "inputs": [
        {
          "indexed": true,
          "name": "owner",
          "type": "address"
        },
        {
          "indexed": true,
          "name": "spender",
          "type": "address"
        },
        {
          "indexed": false,
          "name": "value",
          "type": "uint256"
        }
      ],
      "name": "Approval",
      "type": "event"
    },
    {
      "constant": false,
      "inputs": [],
      "name": "plant",
      "outputs": [],
      "payable": true,
      "stateMutability": "payable",
      "type": "function"
    },
    {
      "constant": false,
      "inputs": [],
      "name": "accountForExternalities",
      "outputs": [],
      "payable": true,
      "stateMutability": "payable",
      "type": "function"
    }
  ],
  "bytecode": "0x608060405234801561001057600080fd5b506040516060806120158339810180604052606081101561003057600080fd5b8101908080519060200190929190805190602001909291908051906020019092919050505082600560006101000a81548173ffffffffffffffffffffffffffffffffffffffff021916908373ffffffffffffffffffffffffffffffffffffffff16021790555081600360006101000a81548173ffffffffffffffffffffffffffffffffffffffff021916908373ffffffffffffffffffffffffffffffffffffffff16021790555080600460006101000a81548173ffffffffffffffffffffffffffffffffffffffff021916908373ffffffffffffffffffffffffffffffffffffffff160217905550505050611eeb8061012a6000396000f3fe60806040526004361061012a5760003560e01c80636dd4d84c116100ab578063a9059cbb1161006f578063a9059cbb1461067e578063acd9534a146106f1578063bdf1ab6914610756578063c934d25914610760578063dd62ed3e1461078b578063eb0f9ad3146108105761012a565b80636dd4d84c1461054657806370a0823114610571578063779b3c5c146105d6578063a1bed0be146105e0578063a457c2d71461060b5761012a565b80633189097b116100f25780633189097b146103ed57806333f193fe14610418578063395093511461044357806344da05ef146104b657806358562947146104e15761012a565b80630777cb621461020e578063095ea7b31461026557806318160ddd146102d857806323b872dd146103035780632681f7e414610396575b600080369050146101a3576040517f08c379a00000000000000000000000000000000000000000000000000000000081526004018080602001828103825260168152602001807f4e6f20646174612063616e206265207061737365642e0000000000000000000081525060200191505060405180910390fd5b600560009054906101000a900473ffffffffffffffffffffffffffffffffffffffff1673ffffffffffffffffffffffffffffffffffffffff166108fc349081150290604051600060405180830381858888f1935050505015801561020b573d6000803e3d6000fd5b50005b34801561021a57600080fd5b50610223610867565b604051808273ffffffffffffffffffffffffffffffffffffffff1673ffffffffffffffffffffffffffffffffffffffff16815260200191505060405180910390f35b34801561027157600080fd5b506102be6004803603604081101561028857600080fd5b81019080803573ffffffffffffffffffffffffffffffffffffffff1690602001909291908035906020019092919050505061088d565b604051808215151515815260200191505060405180910390f35b3480156102e457600080fd5b506102ed6108a4565b6040518082815260200191505060405180910390f35b34801561030f57600080fd5b5061037c6004803603606081101561032657600080fd5b81019080803573ffffffffffffffffffffffffffffffffffffffff169060200190929190803573ffffffffffffffffffffffffffffffffffffffff169060200190929190803590602001909291905050506108ae565b604051808215151515815260200191505060405180910390f35b3480156103a257600080fd5b506103ab61095f565b604051808273ffffffffffffffffffffffffffffffffffffffff1673ffffffffffffffffffffffffffffffffffffffff16815260200191505060405180910390f35b3480156103f957600080fd5b50610402610985565b6040518082815260200191505060405180910390f35b34801561042457600080fd5b5061042d61098a565b6040518082815260200191505060405180910390f35b34801561044f57600080fd5b5061049c6004803603604081101561046657600080fd5b81019080803573ffffffffffffffffffffffffffffffffffffffff16906020019092919080359060200190929190505050610996565b604051808215151515815260200191505060405180910390f35b3480156104c257600080fd5b506104cb610a3b565b6040518082815260200191505060405180910390f35b3480156104ed57600080fd5b506105306004803603602081101561050457600080fd5b81019080803573ffffffffffffffffffffffffffffffffffffffff169060200190929190505050610a42565b6040518082815260200191505060405180910390f35b34801561055257600080fd5b5061055b610a5a565b6040518082815260200191505060405180910390f35b34801561057d57600080fd5b506105c06004803603602081101561059457600080fd5b81019080803573ffffffffffffffffffffffffffffffffffffffff169060200190929190505050610a60565b6040518082815260200191505060405180910390f35b6105de610aa8565b005b3480156105ec57600080fd5b506105f5610e6f565b6040518082815260200191505060405180910390f35b34801561061757600080fd5b506106646004803603604081101561062e57600080fd5b81019080803573ffffffffffffffffffffffffffffffffffffffff16906020019092919080359060200190929190505050610e80565b604051808215151515815260200191505060405180910390f35b34801561068a57600080fd5b506106d7600480360360408110156106a157600080fd5b81019080803573ffffffffffffffffffffffffffffffffffffffff16906020019092919080359060200190929190505050610f25565b604051808215151515815260200191505060405180910390f35b3480156106fd57600080fd5b506107406004803603602081101561071457600080fd5b81019080803573ffffffffffffffffffffffffffffffffffffffff169060200190929190505050610f3c565b6040518082815260200191505060405180910390f35b61075e610f54565b005b34801561076c57600080fd5b506107756112b3565b6040518082815260200191505060405180910390f35b34801561079757600080fd5b506107fa600480360360408110156107ae57600080fd5b81019080803573ffffffffffffffffffffffffffffffffffffffff169060200190929190803573ffffffffffffffffffffffffffffffffffffffff1690602001909291905050506112b9565b6040518082815260200191505060405180910390f35b34801561081c57600080fd5b50610825611340565b604051808273ffffffffffffffffffffffffffffffffffffffff1673ffffffffffffffffffffffffffffffffffffffff16815260200191505060405180910390f35b600560009054906101000a900473ffffffffffffffffffffffffffffffffffffffff1681565b600061089a338484611366565b6001905092915050565b6000600254905090565b60006108bb84848461155d565b610954843361094f85600160008a73ffffffffffffffffffffffffffffffffffffffff1673ffffffffffffffffffffffffffffffffffffffff16815260200190815260200160002060003373ffffffffffffffffffffffffffffffffffffffff1673ffffffffffffffffffffffffffffffffffffffff168152602001908152602001600020546117f990919063ffffffff16565b611366565b600190509392505050565b600360009054906101000a900473ffffffffffffffffffffffffffffffffffffffff1681565b606281565b67016345785d8a000081565b6000610a313384610a2c85600160003373ffffffffffffffffffffffffffffffffffffffff1673ffffffffffffffffffffffffffffffffffffffff16815260200190815260200160002060008973ffffffffffffffffffffffffffffffffffffffff1673ffffffffffffffffffffffffffffffffffffffff1681526020019081526020016000205461188290919063ffffffff16565b611366565b6001905092915050565b620f424081565b60076020528060005260406000206000915090505481565b60085481565b60008060008373ffffffffffffffffffffffffffffffffffffffff1673ffffffffffffffffffffffffffffffffffffffff168152602001908152602001600020549050919050565b6000620f42406008541015610ac75767016345785d8a00009050610bc6565b600360009054906101000a900473ffffffffffffffffffffffffffffffffffffffff1673ffffffffffffffffffffffffffffffffffffffff166341976e09600460009054906101000a900473ffffffffffffffffffffffffffffffffffffffff166040518263ffffffff1660e01b8152600401808273ffffffffffffffffffffffffffffffffffffffff1673ffffffffffffffffffffffffffffffffffffffff16815260200191505060206040518083038186803b158015610b8857600080fd5b505afa158015610b9c573d6000803e3d6000fd5b505050506040513d6020811015610bb257600080fd5b810190808051906020019092919050505090505b620186a03411610c21576040517f08c379a0000000000000000000000000000000000000000000000000000000008152600401808060200182810382526039815260200180611e876039913960400191505060405180910390fd5b6000670de0b6b3a764000082340281610c3657fe5b049050610c4e8160085461188290919063ffffffff16565b6008819055506c25dd85d670d35ec9bec000000060085410610d0457610cbc81600660003373ffffffffffffffffffffffffffffffffffffffff1673ffffffffffffffffffffffffffffffffffffffff1681526020019081526020016000205461188290919063ffffffff16565b600660003373ffffffffffffffffffffffffffffffffffffffff1673ffffffffffffffffffffffffffffffffffffffff16815260200190815260200160002081905550610e02565b6000610d4d610d3e610d2e6c25dd85d670d35ec9bec000000060085461190a90919063ffffffff16565b60016117f990919063ffffffff16565b8361199990919063ffffffff16565b9050610d593382611a1f565b610dbd81610daf84600660003373ffffffffffffffffffffffffffffffffffffffff1673ffffffffffffffffffffffffffffffffffffffff1681526020019081526020016000205461188290919063ffffffff16565b6117f990919063ffffffff16565b600660003073ffffffffffffffffffffffffffffffffffffffff1673ffffffffffffffffffffffffffffffffffffffff16815260200190815260200160002081905550505b600560009054906101000a900473ffffffffffffffffffffffffffffffffffffffff1673ffffffffffffffffffffffffffffffffffffffff166108fc349081150290604051600060405180830381858888f19350505050158015610e6a573d6000803e3d6000fd5b505050565b6c25dd85d670d35ec9bec000000081565b6000610f1b3384610f1685600160003373ffffffffffffffffffffffffffffffffffffffff1673ffffffffffffffffffffffffffffffffffffffff16815260200190815260200160002060008973ffffffffffffffffffffffffffffffffffffffff1673ffffffffffffffffffffffffffffffffffffffff168152602001908152602001600020546117f990919063ffffffff16565b611366565b6001905092915050565b6000610f3233848461155d565b6001905092915050565b60066020528060005260406000206000915090505481565b6000620f42406008541015610f735767016345785d8a00009050611072565b600360009054906101000a900473ffffffffffffffffffffffffffffffffffffffff1673ffffffffffffffffffffffffffffffffffffffff166341976e09600460009054906101000a900473ffffffffffffffffffffffffffffffffffffffff166040518263ffffffff1660e01b8152600401808273ffffffffffffffffffffffffffffffffffffffff1673ffffffffffffffffffffffffffffffffffffffff16815260200191505060206040518083038186803b15801561103457600080fd5b505afa158015611048573d6000803e3d6000fd5b505050506040513d602081101561105e57600080fd5b810190808051906020019092919050505090505b620186a034116110cd576040517f08c379a0000000000000000000000000000000000000000000000000000000008152600401808060200182810382526039815260200180611e876039913960400191505060405180910390fd5b6000670de0b6b3a7640000823402816110e257fe5b049050633b9aca008111611141576040517f08c379a0000000000000000000000000000000000000000000000000000000008152600401808060200182810382526022815260200180611dda6022913960400191505060405180910390fd5b61114b3382611a2d565b60006111696111586108a4565b6008546117f990919063ffffffff16565b90506000611192611183838461199990919063ffffffff16565b8461190a90919063ffffffff16565b90506111a98160095461188290919063ffffffff16565b60098190555061120181600760003373ffffffffffffffffffffffffffffffffffffffff1673ffffffffffffffffffffffffffffffffffffffff1681526020019081526020016000205461188290919063ffffffff16565b600760003373ffffffffffffffffffffffffffffffffffffffff1673ffffffffffffffffffffffffffffffffffffffff16815260200190815260200160002081905550600560009054906101000a900473ffffffffffffffffffffffffffffffffffffffff1673ffffffffffffffffffffffffffffffffffffffff166108fc349081150290604051600060405180830381858888f193505050501580156112ac573d6000803e3d6000fd5b5050505050565b60095481565b6000600160008473ffffffffffffffffffffffffffffffffffffffff1673ffffffffffffffffffffffffffffffffffffffff16815260200190815260200160002060008373ffffffffffffffffffffffffffffffffffffffff1673ffffffffffffffffffffffffffffffffffffffff16815260200190815260200160002054905092915050565b600460009054906101000a900473ffffffffffffffffffffffffffffffffffffffff1681565b600073ffffffffffffffffffffffffffffffffffffffff168373ffffffffffffffffffffffffffffffffffffffff1614156113ec576040517f08c379a0000000000000000000000000000000000000000000000000000000008152600401808060200182810382526024815260200180611e636024913960400191505060405180910390fd5b600073ffffffffffffffffffffffffffffffffffffffff168273ffffffffffffffffffffffffffffffffffffffff161415611472576040517f08c379a0000000000000000000000000000000000000000000000000000000008152600401808060200182810382526022815260200180611db86022913960400191505060405180910390fd5b80600160008573ffffffffffffffffffffffffffffffffffffffff1673ffffffffffffffffffffffffffffffffffffffff16815260200190815260200160002060008473ffffffffffffffffffffffffffffffffffffffff1673ffffffffffffffffffffffffffffffffffffffff168152602001908152602001600020819055508173ffffffffffffffffffffffffffffffffffffffff168373ffffffffffffffffffffffffffffffffffffffff167f8c5be1e5ebec7d5bd14f71427d1e84f3dd0314c0f7b2291e5b200ac8c7c3b925836040518082815260200191505060405180910390a3505050565b600073ffffffffffffffffffffffffffffffffffffffff168373ffffffffffffffffffffffffffffffffffffffff1614156115e3576040517f08c379a0000000000000000000000000000000000000000000000000000000008152600401808060200182810382526025815260200180611e3e6025913960400191505060405180910390fd5b600073ffffffffffffffffffffffffffffffffffffffff168273ffffffffffffffffffffffffffffffffffffffff161415611669576040517f08c379a0000000000000000000000000000000000000000000000000000000008152600401808060200182810382526023815260200180611d956023913960400191505060405180910390fd5b6116ba816000808673ffffffffffffffffffffffffffffffffffffffff1673ffffffffffffffffffffffffffffffffffffffff168152602001908152602001600020546117f990919063ffffffff16565b6000808573ffffffffffffffffffffffffffffffffffffffff1673ffffffffffffffffffffffffffffffffffffffff1681526020019081526020016000208190555061174d816000808573ffffffffffffffffffffffffffffffffffffffff1673ffffffffffffffffffffffffffffffffffffffff1681526020019081526020016000205461188290919063ffffffff16565b6000808473ffffffffffffffffffffffffffffffffffffffff1673ffffffffffffffffffffffffffffffffffffffff168152602001908152602001600020819055508173ffffffffffffffffffffffffffffffffffffffff168373ffffffffffffffffffffffffffffffffffffffff167fddf252ad1be2c89b69c2b068fc378daa952ba7f163c4a11628f55a4df523b3ef836040518082815260200191505060405180910390a3505050565b600082821115611871576040517f08c379a000000000000000000000000000000000000000000000000000000000815260040180806020018281038252601e8152602001807f536166654d6174683a207375627472616374696f6e206f766572666c6f77000081525060200191505060405180910390fd5b600082840390508091505092915050565b600080828401905083811015611900576040517f08c379a000000000000000000000000000000000000000000000000000000000815260040180806020018281038252601b8152602001807f536166654d6174683a206164646974696f6e206f766572666c6f77000000000081525060200191505060405180910390fd5b8091505092915050565b6000808211611981576040517f08c379a000000000000000000000000000000000000000000000000000000000815260040180806020018281038252601a8152602001807f536166654d6174683a206469766973696f6e206279207a65726f00000000000081525060200191505060405180910390fd5b600082848161198c57fe5b0490508091505092915050565b6000808314156119ac5760009050611a19565b60008284029050828482816119bd57fe5b0414611a14576040517f08c379a0000000000000000000000000000000000000000000000000000000008152600401808060200182810382526021815260200180611dfc6021913960400191505060405180910390fd5b809150505b92915050565b611a298282611a3b565b5050565b611a378282611bf6565b5050565b600073ffffffffffffffffffffffffffffffffffffffff168273ffffffffffffffffffffffffffffffffffffffff161415611ade576040517f08c379a000000000000000000000000000000000000000000000000000000000815260040180806020018281038252601f8152602001807f45524332303a206d696e7420746f20746865207a65726f20616464726573730081525060200191505060405180910390fd5b611af38160025461188290919063ffffffff16565b600281905550611b4a816000808573ffffffffffffffffffffffffffffffffffffffff1673ffffffffffffffffffffffffffffffffffffffff1681526020019081526020016000205461188290919063ffffffff16565b6000808473ffffffffffffffffffffffffffffffffffffffff1673ffffffffffffffffffffffffffffffffffffffff168152602001908152602001600020819055508173ffffffffffffffffffffffffffffffffffffffff16600073ffffffffffffffffffffffffffffffffffffffff167fddf252ad1be2c89b69c2b068fc378daa952ba7f163c4a11628f55a4df523b3ef836040518082815260200191505060405180910390a35050565b600073ffffffffffffffffffffffffffffffffffffffff168273ffffffffffffffffffffffffffffffffffffffff161415611c7c576040517f08c379a0000000000000000000000000000000000000000000000000000000008152600401808060200182810382526021815260200180611e1d6021913960400191505060405180910390fd5b611c91816002546117f990919063ffffffff16565b600281905550611ce8816000808573ffffffffffffffffffffffffffffffffffffffff1673ffffffffffffffffffffffffffffffffffffffff168152602001908152602001600020546117f990919063ffffffff16565b6000808473ffffffffffffffffffffffffffffffffffffffff1673ffffffffffffffffffffffffffffffffffffffff16815260200190815260200160002081905550600073ffffffffffffffffffffffffffffffffffffffff168273ffffffffffffffffffffffffffffffffffffffff167fddf252ad1be2c89b69c2b068fc378daa952ba7f163c4a11628f55a4df523b3ef836040518082815260200191505060405180910390a3505056fe45524332303a207472616e7366657220746f20746865207a65726f206164647265737345524332303a20617070726f766520746f20746865207a65726f20616464726573734d696e696d756d20616d6f756e74206f6620756e747265652072657175697265642e536166654d6174683a206d756c7469706c69636174696f6e206f766572666c6f7745524332303a206275726e2066726f6d20746865207a65726f206164647265737345524332303a207472616e736665722066726f6d20746865207a65726f206164647265737345524332303a20617070726f76652066726f6d20746865207a65726f2061646472657373546f6f20736d616c6c205765692076616c75657320646973616c6c6f77656420746f2061766f696420726f756e64696e67206572726f72732ea165627a7a72305820b320821ef225f1b9a7df7c7f68ac1a95ff3ebccfc5bfc8a208c52301422aea700029",
  "source": "pragma solidity >=0.5.0 <0.6.0;\n\n// Voor jou, en voor je toekomst, mijn liefste Siri\n// een gelukkige tiende verjaardag!\n\nimport \"openzeppelin-solidity/contracts/math/SafeMath.sol\";\n\nimport \"./IT6.sol\";\nimport \"../untree/unTree.sol\";\nimport \"../uniswap/IUniswap.sol\";\n\ncontract TerraSix is IT6, Untree {\n\n    /* Using */\n    using SafeMath for uint256;\n\n    /* Constants */\n\n    /** Goal: plant 3 trillion new trees on Earth\n     * expressed in Tree tokens with 18 decimal places of precision.\n     */\n    uint256 public constant GOAL = uint256(3000000000000000000000000000000);\n\n    /** Bootstrap price 1 unTree until an initial supply is minted\n     * Price in unTree/Wei, set to 0.1 ETH\n     */\n    uint256 public constant BOOTSTRAP_PRICE = uint256(100000000000000000);\n\n    /** Bootstrap threshold, number of unTrees to be minted before referring\n     * to Uniswap contract for unTree/ETH price; set to one million unTree.\n     */\n    uint256 public constant BOOTSTRAP_THRESHOLD = uint256(1000000);\n\n    /** Flow minimally 98% onwards to reforestation DAO */\n    uint256 public constant FLOW = uint256(98);\n\n    /* Storage */\n\n    /** Uniswap contract for price point Untree/ETH */\n    IUniswap public uniswap;\n\n    /** Uniswap untree exchange contract */\n    address public untreeExchange;\n\n    /** Address of reforestationDAO\n     * DAO solely dedicated to funding projects for\n     * reforestation, preservation and monitoring of forests\n     * all over the world.\n     */\n    address payable public reforestationDAO;\n\n    /** Tree balances, non-transferable */\n    mapping(address => uint256) public treeBalances;\n\n    /** Hero status, non-transferable reputation */\n    mapping(address => uint256) public heroStatuses;\n\n    /** Total trees planted */\n    uint256 public totalTreesPlanted;\n\n    /** Total hero status */\n    uint256 public totalHeroStatus;\n\n    /* Special functions */\n\n    /** fallback function accepts ETH as collateral for\n     *  repayments of externalities - as a donation\n     */\n    function()\n        external\n        payable\n    {\n        require(msg.data.length == 0,\n            \"No data can be passed.\");\n        // it's a donation, just transfer it onwards\n        // to the reforestationDAO\n        reforestationDAO.transfer(msg.value);\n    }\n\n    constructor(\n        address payable _reforestationDAO,\n        IUniswap _uniswap,\n        address _untreeExchange\n    )\n        public\n    {\n        // TODO: write requirements, addresses not null.\n        reforestationDAO = _reforestationDAO;\n        uniswap = _uniswap;\n        untreeExchange = _untreeExchange;\n    }\n\n    function plant()\n        external\n        payable\n    {\n        uint256 price;\n        if (totalTreesPlanted < BOOTSTRAP_THRESHOLD) {\n            price = BOOTSTRAP_PRICE;\n        } else {\n            price = uniswap.getPrice(untreeExchange);\n        }\n\n        require(msg.value > 100000,\n            \"Too small Wei values disallowed to avoid rounding errors.\");\n\n        // note: this is probably all sorts-of-wrong, but it's 3am, before the\n        // hackathon deadline\n        // mint trees and untrees in equal amount\n        uint256 trees = msg.value * price / uint256(10**18);\n\n        totalTreesPlanted = totalTreesPlanted.add(trees);\n\n        if (totalTreesPlanted >= GOAL) {\n            // give user all trees\n            treeBalances[msg.sender] = treeBalances[msg.sender].add(trees);\n            // TODO; quarterly account for tree balances\n        } else {\n            // issue unTrees and Trees to user\n            uint256 untrees = trees.mul( uint256(1).sub( totalTreesPlanted.div(GOAL) ) );\n            issueUntrees(msg.sender, untrees);\n            treeBalances[address(this)] = (treeBalances[msg.sender].add(trees)).sub(untrees);\n        }\n\n        // on planting all value is sent to reforestationDAO\n        reforestationDAO.transfer(msg.value);\n    }\n\n    function accountForExternalities\n    (\n    )\n        external\n        payable\n    {\n        uint256 price;\n        if (totalTreesPlanted < BOOTSTRAP_THRESHOLD) {\n            price = BOOTSTRAP_PRICE;\n        } else {\n            price = uniswap.getPrice(untreeExchange);\n        }\n        require(msg.value > 100000,\n            \"Too small Wei values disallowed to avoid rounding errors.\");\n       \n        uint256 untrees = msg.value * price / uint256(10**18);\n\n        require(untrees > 10**9,\n            \"Minimum amount of untree required.\");\n\n        burnUntree(msg.sender, untrees);\n\n        uint256 deltaTrees = totalTreesPlanted.sub(totalSupply());\n\n        // HERO status is a quadratic bonding curve in deltaTrees;\n        // because paying off your externalities today, beats paying them off tomorrow.\n        uint256 hero = untrees.div(deltaTrees.mul(deltaTrees));\n\n        totalHeroStatus = totalHeroStatus.add(hero);\n        heroStatuses[msg.sender] = heroStatuses[msg.sender].add(hero);\n\n        // TODO; hold off (100 - FLOW)/100 for Tree payouts\n\n        reforestationDAO.transfer(msg.value);\n    }\n}",
  "sourcePath": "/Users/ben/terrasix/terrasix-dao/contracts/terrasix/TerraSix.sol",
  "compiler": {
    "name": "solc",
    "version": "0.5.8+commit.23d335f2.Emscripten.clang"
  },
  "schemaVersion": "3.0.13",
  "updatedAt": "2019-08-25T03:30:30.330Z",
  "devdoc": {
    "methods": {
      "allowance(address,address)": {
        "details": "See `IERC20.allowance`."
      },
      "approve(address,uint256)": {
        "details": "See `IERC20.approve`.     * Requirements:     * - `spender` cannot be the zero address."
      },
      "balanceOf(address)": {
        "details": "See `IERC20.balanceOf`."
      },
      "decreaseAllowance(address,uint256)": {
        "details": "Atomically decreases the allowance granted to `spender` by the caller.     * This is an alternative to `approve` that can be used as a mitigation for problems described in `IERC20.approve`.     * Emits an `Approval` event indicating the updated allowance.     * Requirements:     * - `spender` cannot be the zero address. - `spender` must have allowance for the caller of at least `subtractedValue`."
      },
      "increaseAllowance(address,uint256)": {
        "details": "Atomically increases the allowance granted to `spender` by the caller.     * This is an alternative to `approve` that can be used as a mitigation for problems described in `IERC20.approve`.     * Emits an `Approval` event indicating the updated allowance.     * Requirements:     * - `spender` cannot be the zero address."
      },
      "totalSupply()": {
        "details": "See `IERC20.totalSupply`."
      },
      "transfer(address,uint256)": {
        "details": "See `IERC20.transfer`.     * Requirements:     * - `recipient` cannot be the zero address. - the caller must have a balance of at least `amount`."
      },
      "transferFrom(address,address,uint256)": {
        "details": "See `IERC20.transferFrom`.     * Emits an `Approval` event indicating the updated allowance. This is not required by the EIP. See the note at the beginning of `ERC20`;     * Requirements: - `sender` and `recipient` cannot be the zero address. - `sender` must have a balance of at least `value`. - the caller must have allowance for `sender`'s tokens of at least `amount`."
      }
    }
  },
  "userdoc": {
    "methods": {}
  }
}